:100000000C94B5000C941A030C94D2000C94D200FA
:100010000C94D2000C94D2000C94D2000C94D20018
:100020000C94D2000C94D2000C94D2000C940504D1
:100030000C94D2000C94D2000C94D2000C94D200F8
:100040000C94D2000C94D2000C94D2000C94D200E8
:100050000C94D2000C94D2000C94D2000C94D200D8
:100060000C94D2000C94D2006E616E00696E660032
:1000700000407A10F35A00A0724E18090010A5D45F
:10008000E80000E87648170000E40B54020000CABC
:100090009A3B000000E1F505000080969800000002
:1000A00040420F000000A086010000001027000061
:1000B0000000E803000000006400000000000A00E7
:1000C000000000000100000000002C76D888DC67EA
:1000D0004F0823DFC1DFAE59E1B1B796E5E3E45342
:1000E000C63AE651997696E8E6C28426EB898C9B5F
:1000F00062ED407C6FFCEFBC9C9F40F2BAA56FA5FF
:10010000F490055A2AF75C936B6CF9676DC11BFC80
:10011000E0E40D47FEF520E6B500D0ED902E03009B
:10012000943577050080841E080000204E0A0000E8
:1001300000C80C333333330F986E12831141EF8DA7
:100140002114893BE65516CFFEE6DB18D1844B38E7
:100150001BF77C1D901DA4BBE424203284725E2218
:100160008100C9F124ECA1E53D2711241FBECFEF8A
:10017000D8E0DEBFCDBF11E0A0E0B1E0E2EFFCE1EE
:1001800002C005900D92A637B107D9F721E0A6E786
:10019000B1E001C01D92AD37B207E1F70E94400304
:1001A0000C94770E0C9400001092B90089E48093AF
:1001B000B80084E08093BC000895CF93DF9358EC9F
:1001C000ECEBF0E0A9EBB0E024EACBEBD0E040E3CD
:1001D00034E803C0515009F450C020839081992322
:1001E000ECF79C91987F90937801903129F09833A7
:1001F000A1F3983009F044C048833083908199235B
:10020000ECF79C91987F90937801903219F3983392
:1002100021F3983131F58883308390819923ECF76D
:100220009C91987F909378019033F1F09833A9F2E4
:10023000983219F08FEF9FEF1CC06093BB0084E8E9
:100240008093BC00ECEBF0E080818823ECF7809198
:10025000B900887F80937801883249F08FEF9FEF53
:1002600008C08FEF9FEF05C080E090E002C081E002
:1002700090E024E92093BC0005C08FEF9FEF02C0FF
:100280008FEF9FEFDF91CF910895AF92BF92CF9202
:10029000DF92EF92FF920F931F93CF93DF9300D0E3
:1002A000CDB7DEB70F2EF8ECFF2EF02DECEBF0E023
:1002B00034EA0F2EF9EBCF2ED12CF02D232F0F2E59
:1002C000FBEBAF2EB12CF02D00E314E804C0FA9440
:1002D000FF2009F4ADC00F2EF1E3EF2EF02D2083A7
:1002E00090819923ECF7D6019C91987F90937801A7
:1002F000903129F0983399F3983009F09CC0D501DA
:100300000C93108390819923ECF7D6019C91987FF0
:10031000909378019032D9F2983309F3983109F02B
:1003200072C0D5018C93108390819923ECF7D6018C
:100330009C91987F90937801903309F467C098332B
:1003400071F2983219F08FEF9FEF6EC03083908179
:100350009923ECF7D6019C91987F90937801903186
:1003600031F0983309F4BBCF983009F052C0D50171
:10037000EC92108390819923ECF7D6019C91987FA1
:1003800090937801903449F0983409F445C098333B
:1003900009F4A5CF8FEF9FEF47C0161617060CF094
:1003A0003EC0C42ED52E80E090E034EC0F2EF4E851
:1003B000FF2EF02DECEBF0E009EB10E04BEB50E002
:1003C00056016130710509F43F2D308320812223CD
:1003D000ECF7D8012C91287F20937801203519F073
:1003E000283561F11FC0DA012C91D5012C93BFEFA4
:1003F000CB1ADB0A0196209178012835A9F06150CB
:100400007109F1F611C08FEF9FEF0EC080E090E010
:100410000BC08FEF9FEF08C080E090E005C080E048
:1004200090E002C08FEF9FEF24E92093BC000CC046
:100430008FEF9FEF09C08FEF9FEF06C02091BB00A9
:10044000F50120830196F0CF0F900F90DF91CF91AF
:100450001F910F91FF90EF90DF90CF90BF90AF90E2
:10046000089567E480E20E94DD008F3F2FEF92073E
:1004700071F160E081E20E94DD008F3F4FEF940751
:1004800031F160E082E20E94DD008F3F2FEF9207A2
:10049000F1F060E983E20E94DD008F3F4FEF9407A7
:1004A000B1F060E084E20E94DD008F3F2FEF920701
:1004B00071F060E085E20E94DD0021E030E001960D
:1004C00011F020E030E088279927821B930B0895D4
:1004D0008F929F92AF92BF92CF92DF92EF92FF9254
:1004E0000F931F93CF93DF9300D000D000D0CDB7F0
:1004F000DEB78C01AE014F5F5F4F66E070E088EAC7
:100500000E9445016C8170E0762F66278B81680F11
:10051000711D072E000C880B990B0E94FF0620E02E
:1005200030EF4FEF55E40E948B062AE038EE4CE1A5
:1005300051E40E948B074B015C016E8170E0762FC5
:1005400066278D81680F711D072E000C880B990B93
:100550000E94FF0620E030EF4FEF55E40E948B062B
:100560002AE038EE4CE151E40E948B076B017C01DC
:100570006A8170E0762F66278981680F711D072ECA
:10058000000C880B990B0E94FF0620E030EF4FEF24
:1005900055E40E948B062AE038EE4CE151E40E94BB
:1005A0008B07F801608371838283938384829582B1
:1005B000A682B782C086D186E286F386C8012696D7
:1005C0000FB6F894DEBF0FBECDBFDF91CF911F9164
:1005D0000F91FF90EF90DF90CF90BF90AF909F90E2
:1005E0008F900895CF93DF930E942004EC0185E261
:1005F00090E09983888322E02A839C838B8321E087
:100600002D839F838E8325E028879A87898723E01F
:100610002B879D878C8784E08E87E9E6F0E08081D8
:1006200082608083E89ACE010E949204CE01DF911D
:10063000CF9108951F920F920FB60F9211248F93AE
:1006400081E0809377018F910F900FBE0F901F90E4
:10065000189510928000E1E8F0E080818C60808342
:10066000109285001092840083E294EF90938900A9
:1006700080938800EFE6F0E08081826080830895B7
:100680008F929F92AF92BF92CF92DF92EF92FF92A2
:100690000F931F93CF93DF93CDB7DEB7C557D10923
:1006A0000FB6F894DEBF0FBECDBF85E0E8E0F1E005
:1006B000DE011D9601900D928A95E1F70E94F202EB
:1006C0008C010E9429030E944D060E94D40063966B
:1006D0001FAE6397AE014E5A5F4F61E070E08FE04E
:1006E0000E94450163968FAD6397833309F073C011
:1006F00082E291E00E9467060E94310278946E01C6
:1007000082E1C80ED11C7E0193E5E90EF11C0F2E8B
:10071000F3E28F2EF02DF70132965F010F2EFDE0F0
:100720009F2EF02D80917701882351F01092770150
:10073000C8010E94FA05892B19F0C8010E947704AC
:1007400080917601882371F310927601CE01019693
:100750000E9468028C858F938B858F938A858F93F7
:1007600089858F9388858F938F818F938E818F93C7
:100770008D818F938C818F938B818F938A818F93BF
:1007800089818F93809107018F93809106018F93C8
:10079000DF92CF920E94F70DC6010E946706F70113
:1007A000882D11928A95E9F78CE0FE013196D501EA
:1007B00001900D928A95E1F7F70192A2A701BE017F
:1007C000635F7F4FC8010E948A050FB6F894DEBFB1
:1007D0000FBECDBFA7CF8DE091E00E9467068FEFDF
:1007E0009FEFCB58DF4F0FB6F894DEBF0FBECDBFE3
:1007F000DF91CF911F910F91FF90EF90DF90CF90FD
:10080000BF90AF909F908F9008951F920F920FB658
:100810000F9211248F9381E0809376018F910F9036
:100820000FBE0F901F901895FC01A62FB72F9C01AB
:100830002B5F3F4F91919D93E217F307D9F70895EE
:1008400080E190E00E94AC0B20E1FC0111922A951E
:10085000E9F70895CF93DF93EC01DA01E881F9819C
:10086000508181E090E00A8002C0880F991F0A94AD
:10087000E2F78095852380836EBD0DB407FEFDCF22
:100880008EB58F872115310579F0FD012A0F3B1FA9
:10089000DF0190819EBD0DB407FEFDCF9EB59C93F8
:1008A0003196E217F307A1F7E881F981208181E011
:1008B00090E00A8002C0880F991F0A94E2F7822B09
:1008C00080838F85DF91CF91089560620E942A0412
:1008D00008950E942A04089520E030E040E050E0AE
:1008E0006FEF0E942A0408950E946C04089520E08E
:1008F00030E040E050E061EE0E942A040895CF937A
:10090000DF931F92CDB7DEB720E7298321E030E0E7
:10091000AE014F5F5F4F67E00E9465040F90DF916B
:10092000CF910895FF920F931F93CF93DF931F9260
:10093000CDB7DEB78C01DC01ED91FC9111974291AE
:1009400081E090E09C0112960C90129702C0220F59
:10095000331F0A94E2F7242B20831396ED91FC9128
:10096000149742919C0115960C90159702C0220F86
:10097000331F0A94E2F7242B2083ED91FC91119709
:1009800040819C0112960C90129702C0220F331FD7
:100990000A94E2F7242B20831396ED91FC9114978F
:1009A0003081AC0115960C90159702C0440F551F6D
:1009B0000A94E2F7242F2095232320832CB520616D
:1009C0002CBD2CB520642CBD1696ED91FC9117978B
:1009D00042919C0118960C90189702C0220F331F69
:1009E0000A94E2F7242B20831996ED91FC911A9733
:1009F00042919C011B960C901B9702C0220F331F43
:100A00000A94E2F7242B20831C96ED91FC911D970C
:100A100022911E960C9002C0880F991F0A94E2F74B
:100A20008095822380838CB5877F8CBD8CB58B7F2E
:100A30008CBD8CB58E7F8CBD8CB58D7F8CBD8DB5FE
:100A400081608DBD8CB58F7D8CBD20E030E040E0B5
:100A500050E062EEC8010E942A0420E030E040E04D
:100A600050E061EEC8010E942A04C8010E947F0480
:100A70008FE0898321E030E0AE014F5F5F4F60E09F
:100A8000C8010E9465040F2EFFE3FF2EF02DF982AE
:100A900021E030E0AE014F5F5F4F61E0C8010E948E
:100AA0006504F98221E030E0AE014F5F5F4F6CE1F9
:100AB000C8010E94650484E0898321E030E0AE0132
:100AC0004F5F5F4F6DE1C8010E946504198221E00C
:100AD00030E0AE014F5F5F4F62E0C8010E946504E5
:100AE0000F90DF91CF911F910F91FF900895CF93B9
:100AF000DF931F92CDB7DEB720E3298321E030E0FA
:100B0000AE014F5F5F4F67E00E9465040F90DF9179
:100B1000CF910895CF92DF92EF92FF920F931F93A0
:100B2000CF93DF9300D000D000D0CDB7DEB78C01DB
:100B30006B017A010E947705BE016F5F7F4FC6018E
:100B40000E94140425E030E0AE014F5F5F4F60E18A
:100B5000C8010E946504BE016F5F7F4FC6010E94FD
:100B6000140425E030E0AE014F5F5F4F6AE0C8013A
:100B70000E946504D70192962C9130E0A7014E5F48
:100B80005F4F60EAC8010E942A0421E030E0AE0114
:100B90004A5F5F4F60E0C8010E9469048E818E7FCA
:100BA0008E8321E030E0AE014A5F5F4F60E0C80114
:100BB0000E946504D8011396ED91FC911497208151
:100BC00081E090E015960C9002C0880F991F0A945E
:100BD000E2F7822B808326960FB6F894DEBF0FBE15
:100BE000CDBFDF91CF911F910F91FF90EF90DF90DC
:100BF000CF900895EF92FF920F931F93CF93DF93BF
:100C00001F92CDB7DEB78C01DC011396ED91FC91FC
:100C10001497208181E090E015960C9002C0880F17
:100C2000991F0A94E2F7809582238083C8010E946D
:100C30007404F801878585FD09C084FD0AC00F2E64
:100C4000FEEFEF2EFF24FA94F02D06C0E12CF12CDC
:100C500003C0EE24EA94FE2CC8010E94770521E02F
:100C600030E0AE014F5F5F4F60E0C8010E94690451
:100C700089818160898321E030E0AE014F5F5F4F61
:100C800060E0C8010E946504C7010F90DF91CF9119
:100C90001F910F91FF90EF9008951092C50087E685
:100CA0008093C400E1ECF0E0808188608083E2EC16
:100CB000F0E08081866080830895E0ECF0E0908130
:100CC00095FFFDCF8093C60080E090E00895EF92FD
:100CD000FF920F931F93CF93FC0101900020E9F73F
:100CE00031978F01081B190B1016110674F47C0143
:100CF000C0E0F701EC0FF11D80810E945D06CF5F1F
:100D00002C2F30E020173107A4F3CF911F910F91C2
:100D1000FF90EF9008950E949F060C9451070E9447
:100D20004A0758F00E94430740F029F45F3F29F03A
:100D30000C943A0751110C9485070C9440070E94BB
:100D4000620768F39923B1F3552391F3951B550B73
:100D5000BB27AA2762177307840738F09F5F5F4F8E
:100D6000220F331F441FAA1FA9F335D00E2E3AF0CD
:100D7000E0E832D091505040E695001CCAF72BD0E5
:100D8000FE2F29D0660F771F881FBB1F2617370736
:100D90004807AB07B0E809F0BB0B802DBF01FF2768
:100DA00093585F4F3AF09E3F510578F00C943A0704
:100DB0000C9485075F3FE4F3983ED4F386957795CE
:100DC0006795B795F7959F5FC9F7880F911D969521
:100DD000879597F90895E1E0660F771F881FBB1F7D
:100DE000621773078407BA0720F0621B730B840B2A
:100DF000BA0BEE1F88F7E0950895E89409C097FBB9
:100E00003EF490958095709561957F4F8F4F9F4FE1
:100E10009923A9F0F92F96E9BB279395F695879525
:100E200077956795B795F111F8CFFAF4BB0F11F4E8
:100E300060FF1BC06F5F7F4F8F4F9F4F16C088238F
:100E400011F096E911C0772321F09EE8872F762FC5
:100E500005C0662371F096E8862F70E060E02AF006
:100E60009A95660F771F881FDAF7880F96958795F2
:100E700097F9089597F99F6780E870E060E008951A
:100E80009FEF80EC089500240A94161617061806A2
:100E90000906089500240A9412161306140605067E
:100EA0000895092E0394000C11F4882352F0BB0F0F
:100EB00040F4BF2B11F460FF04C06F5F7F4F8F4F72
:100EC0009F4F089557FD9058440F551F59F05F3FAD
:100ED00071F04795880F97FB991F61F09F3F79F05C
:100EE00087950895121613061406551FF2CF4695DE
:100EF000F1DF08C0161617061806991FF1CF869560
:100F00007105610508940895E894BB276627772743
:100F1000CB0197F908950E949E070C9451070E94F7
:100F2000430738F00E944A0720F0952311F00C94F3
:100F30003A070C94400711240C9485070E9462071D
:100F400070F3959FC1F3950F50E0551F629FF0011C
:100F5000729FBB27F00DB11D639FAA27F00DB11D35
:100F6000AA1F649F6627B00DA11D661F829F2227BE
:100F7000B00DA11D621F739FB00DA11D621F839F45
:100F8000A00D611D221F749F3327A00D611D231F1B
:100F9000849F600D211D822F762F6A2F11249F5769
:100FA00050409AF0F1F088234AF0EE0FFF1FBB1F6C
:100FB000661F771F881F91505040A9F79E3F51052B
:100FC00080F00C943A070C9485075F3FE4F3983E59
:100FD000D4F3869577956795B795F795E7959F5FD5
:100FE000C1F7FE2B880F911D9695879597F9089567
:100FF000A0E1B0E0EEEFF7E00C94750B7C011B0173
:101000006A01FC0117821682838181FF44C39E011D
:101010002F5F3F4F3901F7019381F10193FD8591D6
:1010200093FF81911F01882309F431C3853239F47C
:1010300093FD859193FF81911F01853239F4B701AA
:1010400090E00E94BB0D56016501E5CF10E0512CE8
:10105000912CFFE1F915D8F08B3279F038F4803219
:1010600079F08332A1F4F92DF0612EC08D3261F058
:10107000803369F4292D21602DC0392D3260932EE3
:10108000892D8460982E2AC0E92DE86015C097FC50
:101090002DC020ED280F2A3088F496FE06C03AE0D5
:1010A000139F200D1124122F19C08AE0589E200D85
:1010B0001124522EE92DE0629E2E10C08E3231F4A2
:1010C00096FCE5C2F92DF0649F2E08C08C3621F401
:1010D000292D2068922E02C0883641F4F10193FD3B
:1010E000859193FF81911F018111B3CF9BEB980FE5
:1010F000933020F4992D9061805E07C09BE9980F92
:10110000933008F066C1992D9F7E96FF16E09F737D
:10111000992E853619F49064992E08C0863621F4EC
:10112000392F3068932E02C01111115097FE07C05D
:101130001C3350F444244394410E27E00BC0183074
:1011400038F027E017E005C027E09CE3492E02C0F5
:10115000212F412C560184E0A80EB11CF6016081BC
:10116000718182819381042DA3010E94CD0C6C01B9
:10117000F981FC87F0FF02C0F3FF06C091FC06C0B6
:1011800092FE06C000E205C00DE203C00BE201C002
:1011900000E08C858C7019F001115AC29BC297FE39
:1011A00010C04C0CFC85F4FF04C08A81813309F423
:1011B0004A94141474F528E0241578F588E0482E34
:1011C0002CC096FC2AC0812F90E08C159D059CF0C8
:1011D0003CEFC3163FEFD30674F0892D8068982E3C
:1011E0000AC0E2E0F0E0EC0FFD1FE10FF11D80818D
:1011F000803319F411501111F4CF97FE0EC044241E
:101200004394410E812F90E0C816D9062CF41C1986
:1012100004C04424439401C010E097FE06C01C148F
:101220001D0434F4C601019605C085E090E002C0BB
:1012300081E090E001110196112331F0212F30E07F
:101240002F5F3F4F820F931F252D30E082179307AA
:1012500014F4581A01C0512C892D897049F4552075
:1012600039F0B70180E290E00E94BB0D5A94F7CFAD
:10127000002329F0B701802F90E00E94BB0D93FC62
:1012800009C0552039F0B70180E390E00E94BB0D02
:101290005A94F7CF97FE4CC04601D7FE02C0812C6E
:1012A000912CC60188199909F301E80FF91FFE87EF
:1012B000ED87960124193109388B2F87012F10E013
:1012C0001195019511093FEF8316930629F4B70193
:1012D0008EE290E00E94BB0DC814D9044CF08F85BB
:1012E00098898815990524F4ED85FE85818101C0D2
:1012F00080E3F1E08F1A91082D853E852F5F3F4FE7
:101300003E872D87801691062CF0B70190E00E9451
:10131000BB0DD9CFC814D90441F49A81963320F477
:10132000953319F43C8534FF81E3B70190E04EC05A
:101330008A81813319F09C859F7E9C87B70190E05C
:101340000E94BB0D111105C094FC18C085E690E009
:1013500017C0B7018EE290E00E94BB0D1E5F82E0D5
:1013600001E0080FF301E80FF11D8081B70190E063
:101370000E94BB0D802F0113F3CFE6CF85E490E0F0
:10138000B7010E94BB0DD7FC06C0C114D10441F4C3
:10139000EC85E4FF05C0D194C194D1088DE201C071
:1013A0008BE2B70190E00E94BB0D80E32AE0C216F9
:1013B000D1042CF08F5FFAE0CF1AD108F7CFB70134
:1013C00090E00E94BB0DB701C601C0960E94BB0D04
:1013D00054C1833631F0833779F0833509F056C034
:1013E00020C0560132E0A30EB11CF6018081898332
:1013F00001E010E0630112C05601F2E0AF0EB11C33
:10140000F601C080D18096FE03C0612F70E002C05B
:101410006FEF7FEFC6010E94B00D8C01F92DFF77B1
:1014200014C0560122E0A20EB11CF601C080D1808A
:1014300096FE03C0612F70E002C06FEF7FEFC60120
:101440000E94A50D8C01F92DF0689F2EF3FD1AC0A6
:10145000852D90E008171907A8F4B70180E290E005
:101460000E94BB0D5A94F4CFF60197FC859197FE2C
:1014700081916F01B70190E00E94BB0D51105A9409
:10148000015011090115110579F7F7C0843611F0E3
:10149000893661F5560197FE09C024E0A20EB11C01
:1014A000F60160817181828193810AC0F2E0AF0E02
:1014B000B11CF60160817181072E000C880B990B1D
:1014C000F92DFF769F2E97FF09C090958095709516
:1014D00061957F4F8F4F9F4FF0689F2E2AE030E03D
:1014E000A3010E94190EC82EC6183FC0092D8537CA
:1014F00021F40F7E2AE030E01DC0097F8F3691F085
:1015000018F4883559F0C3C0803719F0883711F0C6
:10151000BEC0006104FF09C0046007C094FE08C09B
:10152000066006C028E030E005C020E130E002C0DF
:1015300020E132E0560107FF09C084E0A80EB11C8B
:10154000F601608171818281938108C0F2E0AF0E63
:10155000B11CF6016081718180E090E0A3010E94DE
:10156000190EC82EC6180F77902E96FE0BC0092DA7
:101570000E7FC11650F494FE0AC092FC08C0092DDB
:101580000E7E05C0DC2C092D03C0DC2C01C0D12E41
:1015900004FF0DC0FE01EC0DF11D8081803311F4BC
:1015A000097E09C002FF06C0D394D39404C0802FE3
:1015B000867809F0D39403FD11C000FF06C01C2DEE
:1015C000D51480F4150D1D190DC0D51458F4B701AC
:1015D00080E290E00E94BB0DD394F7CFD51410F4B5
:1015E0005D1801C0512C04FF10C0B70180E390E0EA
:1015F0000E94BB0D02FF17C001FD03C088E790E009
:1016000002C088E590E0B7010CC0802F867859F0C1
:1016100001FF02C08BE201C080E207FD8DE2B7014D
:1016200090E00E94BB0DC11638F4B70180E390E052
:101630000E94BB0D1150F7CFCA94F301EC0DF11DC0
:101640008081B70190E00E94BB0DC110F5CF15C09D
:10165000F4E0F51560F584E0581A93FE1FC00111FF
:1016600027C02C8523FF2AC008E610E0392D3071F1
:10167000932EF8018491811124C0552009F4E4CC03
:10168000B70180E290E00E94BB0D5A94F6CFF701BB
:101690008681978126C08FEF9FEF23C0B70180E23C
:1016A00090E00E94BB0D5A945110F8CFD8CF512C26
:1016B000B701802F90E00E94BB0DD3CF0CE610E065
:1016C000D5CF91108052B70190E00E94BB0D0F5F03
:1016D0001F4FCFCF23E0251510F483E0BDCF512C51
:1016E000C0CF6096E2E10C94910B2F923F924F9203
:1016F0005F926F927F928F929F92AF92BF92CF92A2
:10170000DF92EF92FF920F931F93CF93DF93CDB7AA
:10171000DEB7CA1BDB0B0FB6F894DEBF0FBECDBF22
:1017200009942A88398848885F846E847D848C84F3
:101730009B84AA84B984C884DF80EE80FD800C81FC
:101740001B81AA81B981CE0FD11D0FB6F894DEBFDF
:101750000FBECDBFED0108950F931F93CF93DF937D
:101760008230910510F482E090E0E0917B01F091ED
:101770007C0120E030E0A0E0B0E0309719F140813A
:1017800051810281138148175907C8F084179507C2
:1017900069F4109731F012960C93129713961C93DC
:1017A00027C000937B0110937C0122C021153105D5
:1017B00019F04217530718F49A01BD01EF01DF0138
:1017C000F801DBCF21153105F9F0281B390B243046
:1017D000310580F48A819B816115710521F0FB013F
:1017E0009383828304C090937C0180937B01FE01EC
:1017F000329644C0FE01E20FF31F81939193225071
:101800003109398328833AC02091790130917A01D6
:10181000232B41F4209102013091030130937A018E
:1018200020937901209100013091010121153105AA
:1018300041F42DB73EB74091040150910501241B9E
:10184000350BE0917901F0917A01E217F307A0F4EA
:101850002E1B3F0B2817390778F0AC014E5F5F4F06
:101860002417350748F04E0F5F1F50937A014093BD
:1018700079018193919302C0E0E0F0E0CF01DF9124
:10188000CF911F910F910895CF93DF93009709F4A3
:1018900081C0FC01329713821282A0917B01B0912A
:1018A0007C01109781F420813181820F931F209158
:1018B000790130917A012817390751F5F0937A01AF
:1018C000E093790167C0ED0120E030E0CE17DF073B
:1018D00040F44A815B819E0141155105F1F0EA0116
:1018E000F5CFD383C28340815181840F951FC817E0
:1018F000D90759F488819981840F951F02969183A5
:1019000080838A819B81938382832115310529F409
:10191000F0937C01E0937B013DC0E901FB83EA8306
:1019200049915991C40FD51FEC17FD0761F48081CF
:101930009181840F951F0296E901998388838281A2
:1019400093819B838A83E0E0F0E012968D919C91D5
:101950001397009719F0FD01DC01F7CF8D919C9151
:1019600011979D012E5F3F4F820F931F20917901A8
:1019700030917A012817390769F4309729F41092C9
:101980007C0110927B0102C013821282B0937A0113
:10199000A0937901DF91CF910895283008F027E0D6
:1019A0003327DA01990F311D87FD9160009661059B
:1019B000710539F432602E5F3D9330E32A95E1F7EB
:1019C00008959F3F30F080387105610509F03C5F54
:1019D0003C5F3D93913008F08068911DDF93CF9379
:1019E0001F930F93FF92EF92192F987F9695E92FEF
:1019F00096959695E90FFF27E653FF4F99273327D2
:101A0000EE24FF24A701E70105900894079428F429
:101A1000360FE71EF81E491F511D660F771F881FDE
:101A2000991F0694A1F70590079428F4E70EF81E75
:101A3000491F561FC11D770F881F991F661F0694E7
:101A4000A1F70590079428F4F80E491F561FC71FE9
:101A5000D11D880F991F661F771F0694A1F7059067
:101A6000079420F4490F561FC71FD81F990F661FF0
:101A7000771F881F0694A9F784911095177041F07D
:101A8000D695C79557954795F794E7941A95C1F75A
:101A9000E0E7F0E068941590159135916591959186
:101AA00005907FE27395E118F10A430B560BC90BC1
:101AB000D009C0F7E10CF11E431F561FC91FD01DEE
:101AC0007EF4703311F48A95E6CFE894015030F03B
:101AD000080F0AF40027021708F4202F2395022F7D
:101AE0007A3328F079E37D932A95E9F710C07D9346
:101AF0002A9589F6069497956795379517951794C3
:101B0000E118F10A430B560BC90BD00998F0239545
:101B10007E9173957A3308F070E37C932013B8F7C5
:101B20007E9170617D9330F0839571E37D9370E3D6
:101B30002A95E1F71124EF90FF900F911F91CF911B
:101B4000DF91992787FD90950895FC0105906150DC
:101B500070400110D8F7809590958E0F9F1F0895C3
:101B6000FC016150704001900110D8F7809590956C
:101B70008E0F9F1F08950F931F93CF93DF93FB0149
:101B8000238121FD03C08FEF9FEF2CC022FF16C0E1
:101B900046815781248135814217530744F4A0813F
:101BA000B1819D012F5F3F4F318320838C9326812C
:101BB00037812F5F3F4F3783268314C08B01EC01A1
:101BC000FB010084F185E02D0995892BE1F6D80110
:101BD00016968D919C911797019617969C938E93CC
:101BE0001697CE01DF91CF911F910F910895AEE02E
:101BF000B0E0EDEFFDE00C94830B0D891E8986E0CB
:101C00008C831A8309838FEF9FE79E838D83AE01B8
:101C1000475E5F4F6F89788DCE0101960E94F8076D
:101C2000EF81F885E00FF11F10822E96E4E00C940E
:101C30009F0BFA01AA27283051F1203181F1E89455
:101C40006F936E7F6E5F7F4F8F4F9F4FAF4FB1E0AF
:101C50003ED0B4E03CD0670F781F891F9A1FA11DAA
:101C6000680F791F8A1F911DA11D6A0F711D811DAB
:101C7000911DA11D20D009F468943F912AE0269F70
:101C800011243019305D3193DEF6CF010895462FCF
:101C90004770405D4193B3E00FD0C9F7F6CF462FB0
:101CA0004F70405D4A3318F0495D31FD4052419319
:101CB00002D0A9F7EACFB4E0A695979587957795D6
:101CC0006795BA95C9F700976105710508959B015D
:101CD000AC010A2E06945795479537952795BA95E6
:101CE000C9F7620F731F841F951FA01D0895F894F4
:021CF000FFCF24
:101CF20000007D012000370101010101014E6F202A
:101D02004C495333444820646574656374656421A7
:101D12000A004C4953334448206973206176616953
:101D22006C61626C650A0054583A2056616C7565A4
:101D32007320746F2073656E643A20783D25342ECB
:101D42003266206D2F735E3220793D25342E326645
:101D5200206D2F735E32207A3D25342E3266206D3F
:061D62002F735E320A003F
:00000001FF
