:10000000F2C0000037C100000EC100000CC10000AA
:100010000AC1000008C1000006C1000004C10000C0
:1000200002C1000000C10000FEC00000FCC00000D2
:10003000FAC00000F8C00000F6C00000F4C00000E4
:10004000F2C00000F0C00000EEC00000ECC00000F4
:10005000EAC00000E8C00000E6C00000E4C0000004
:10006000E2C00000E0C00000DEC00000DCC0000014
:10007000DAC00000D8C00000D6C00000D4C0000024
:10008000D2C00000D0C00000CEC00000CCC0000034
:10009000CAC00000C8C00000C6C00000C4C0000044
:1000A000C2C00000C0C00000BEC00000BCC0000054
:1000B000BAC00000B8C00000B6C00000B4C0000064
:1000C000B2C00000B0C00000AEC00000ACC0000074
:1000D000AAC00000A8C00000A6C00000A4C0000084
:1000E000A2C000006E616E00696E660000407A106A
:1000F000F35A00A0724E18090010A5D4E80000E8D9
:100100007648170000E40B54020000CA9A3B000036
:1001100000E1F505000080969800000040420F00C5
:100120000000A08601000000102700000000E80386
:10013000000000006400000000000A000000000051
:100140000100000000002C76D888DC674F0823DF10
:10015000C1DFAE59E1B1B796E5E3E453C63AE651E3
:10016000997696E8E6C28426EB898C9B62ED407C0A
:100170006FFCEFBC9C9F40F2BAA56FA5F490055AA6
:100180002AF75C936B6CF9676DC11BFCE0E40D47CB
:10019000FEF520E6B500D0ED902E030094357705EE
:1001A0000080841E080000204E0A000000C80C33A6
:1001B0003333330F986E12831141EF8D2114893B35
:1001C000E65516CFFEE6DB18D1844B381BF77C1DB5
:1001D000901DA4BBE424203284725E228100C9F108
:1001E00024ECA1E53D2711241FBECFEFD1E2DEBFF5
:1001F000CDBF00E00CBF12E0A0E0B2E0E6EFF4E11A
:1002000000E00BBF02C007900D92AE34B107D9F7E2
:1002100022E0AEE4B2E001C01D92A335B207E1F7DF
:10022000BBD00C94790AECCECF93DF9301D1EC01D3
:100230008BE091E09983888321E02A8385E290E036
:100240009C838B831D829F838E8328879A878987CF
:1002500022E02B879D878C8783E08E87E9E6F0E09C
:10026000808182608083E89ACE01C5D1CE01DF9182
:10027000CF9108951F920F920FB60F9211248F9372
:1002800081E080934E028F910F900FBE0F901F90D0
:1002900018951092C50087E68093C400E1ECF0E069
:1002A000808188608083E2ECF0E0808186608083DA
:1002B0000895E0ECF0E0908195FFFDCF8093C600BB
:1002C00080E090E00895EF92FF920F931F93CF93F9
:1002D000FC0101900020E9F731978F01081B190BF1
:1002E000101611066CF47C01C0E0F701EC0FF11D53
:1002F0008081DFDFCF5F2C2F30E020173107ACF398
:10030000CF911F910F91FF90EF9008950F931F933E
:10031000CF93DF93CDB7DEB7C054D1090FB6F894B1
:10032000DEBF0FBECDBFFC0183858F9382858F9387
:1003300081858F9380858F9387818F9386818F931B
:1003400085818F9384818F9383818F9382818F9313
:1003500081818F9380818F93809107028F93809109
:1003600006028F938E010F5F1F4F1F930F930E9402
:10037000ED09C801A8DF0FB6F894DEBF0FBECDBFF0
:10038000C05CDF4F0FB6F894DEBF0FBECDBFDF916C
:10039000CF911F910F910895CF93DF93CDB7DEB723
:1003A000AD970FB6F894DEBF0FBECDBF85E0E8E095
:1003B000F2E0DE01119601900D928A95E1F769DF76
:1003C00033DF8C017894AE014F5F5F4F60E070E0E7
:1003D00081D021E030E0AE014A5F5F4F60E0C801AC
:1003E0006ED080914E028823E1F310924E0208C035
:1003F000BE01655F7F4FC801F0D1CE010D9686DF4B
:10040000C801CAD08111F4CFAE014F5F5F4F60E0E9
:1004100070E0C8015FD0E5CFFC01A62FB72F9C018B
:100420002B5F3F4F91919D93E217F307D9F7089502
:1004300080E190E087D520E1FC0111922A95E9F74F
:100440000895CF93DF93EC01DA01E881F9815081BF
:1004500081E090E00A8002C0880F991F0A94E2F7B9
:100460008095852380836EBD0DB407FEFDCF8EB5CC
:100470008F872115310579F0FD012A0F3B1FDF0120
:1004800090819EBD0DB407FEFDCF9EB59C93319625
:10049000E217F307A1F7E881F981208181E090E07C
:1004A0000A8002C0880F991F0A94E2F7822B80838A
:1004B0008F85DF91CF9108956062C3CF0895C1CF3A
:1004C000089520E030E040E050E06FEFBACF0895AB
:1004D000F8CF0895DF92EF92FF920F931F93CF937F
:1004E000DF9300D000D0CDB7DEB77C01D62ECA0195
:1004F000BE016F5F7F4F90DF6AE06D0D25E030E059
:10050000AE014F5F5F4FC701D7DF21E030E0AE01A2
:100510004A5F5F4F62E0C701D2DF01E010E0C8012F
:1005200002C0880F991FDA94E2F79E81892B8E838F
:1005300021E030E0AE014A5F5F4F62E0C701BCDFFF
:10054000D7011396ED91FC911497808115960C902C
:1005500002C0000F111F0A94E2F7082B00832696B1
:100560000FB6F894DEBF0FBECDBFDF91CF911F91C4
:100570000F91FF90EF90DF900895FC0127852E707A
:1005800030E035952795263031051CF4822F932FC6
:1005900008958FEF9FEF0895CF93DF93EC01EB81E8
:1005A000FC81208181E090E00D8002C0880F991FBE
:1005B0000A94E2F7809582238083CE0189DFCE0101
:1005C000DCDF892F8095881F8827881FDF91CF91D6
:1005D0000895CF93DF931F92CDB7DEB720E729832D
:1005E00021E030E0AE014F5F5F4F67E065DF0F90C5
:1005F000DF91CF910895FF920F931F93CF93DF93D5
:100600001F92CDB7DEB78C01DC01ED91FC91119703
:10061000429181E090E09C0112960C90129702C0EA
:10062000220F331F0A94E2F7242B20831396ED91B7
:10063000FC91149742919C0115960C90159702C05D
:10064000220F331F0A94E2F7242B2083ED91FC91B3
:10065000119740819C0112960C90129702C0220FB4
:10066000331F0A94E2F7242B20831396ED91FC911B
:1006700014973081AC0115960C90159702C0440F69
:10068000551F0A94E2F7242F2095232320832CB5AD
:1006900020612CBD2CB520642CBD1696ED91FC91EB
:1006A000179742919C0118960C90189702C0220F40
:1006B000331F0A94E2F7242B20831996ED91FC91C5
:1006C0001A9742919C011B960C901B9702C0220F17
:1006D000331F0A94E2F7242B20831C96ED91FC91A2
:1006E0001D9722911E960C9002C0880F991F0A94A4
:1006F000E2F78095822380838CB5877F8CBD8CB593
:100700008B7F8CBD8CB58E7F8CBD8CB58D7F8CBD69
:100710008DB581608DBD8CB58F7D8CBD20E030E0C6
:1007200040E050E062EEC8018CDE20E030E040E0C6
:1007300050E061EEC80185DEC8014BDF8FE08983A0
:1007400021E030E0AE014F5F5F4F60E0C801B4DEF2
:100750000F2EFFE3FF2EF02DF98221E030E0AE01F5
:100760004F5F5F4F61E0C801A7DEF98221E030E012
:10077000AE014F5F5F4F6CE1C8019EDE84E089836C
:1007800021E030E0AE014F5F5F4F6DE1C80194DEC4
:10079000198221E030E0AE014F5F5F4F62E0C80197
:1007A0008BDE0F90DF91CF911F910F91FF900895F5
:1007B000CF93DF931F92CDB7DEB7FC01978590648E
:1007C000998321E030E0AE014F5F5F4F67E0CF01DA
:1007D00073DE0F90DF91CF9108950F931F93CF9306
:1007E000DF938C01EB01C9DE99838883C801E0DFC8
:1007F0008881998199231CF41AA280E015C021E018
:1008000030E0AE014E5D5F4F60E6C80158DE2AA1C0
:10081000222349F030E0AE014E5F5F4F61E6C80130
:1008200010DE81E001C081E0DF91CF911F910F9137
:1008300008952F923F924F925F926F927F928F9284
:100840009F92AF92BF92CF92DF92EF92FF920F935F
:100850001F93CF93DF93CDB7DEB760970FB6F894B1
:10086000DEBF0FBECDBF7C011B016A01FC011782F8
:100870001682838181FF2AC39E012F5F3F4F39017A
:10088000F7019381F10193FD859193FF81911F0100
:10089000882309F417C3853239F493FD859193FFBA
:1008A00081911F01853231F4B70190E05AD556018C
:1008B0006501E6CF10E0512C912CFFE1F915D8F03D
:1008C0008B3279F038F4803279F08332A1F4F92D4B
:1008D000F0612EC08D3261F0803369F4292D2160E2
:1008E0002DC0392D3260932E892D8460982E2AC018
:1008F000E92DE86015C097FC2DC020ED280F2A30A7
:1009000088F496FE06C03AE0139F200D1124122FA2
:1009100019C08AE0589E200D1124522EE92DE06264
:100920009E2E10C08E3231F496FCCCC2F92DF064AC
:100930009F2E08C08C3621F4292D2068922E02C0EB
:10094000883641F4F10193FD859193FF81911F0158
:100950008111B3CF9BEB980F933020F4992D9061C8
:10096000805E07C09BE9980F933008F059C1992D1C
:100970009F7E96FF16E09F73992E853619F490643A
:10098000992E08C0863621F4392F3068932E02C084
:100990001111115097FE07C01C3350F444244394A6
:1009A000410E27E00BC0183038F027E017E005C0F3
:1009B00027E09CE3492E02C0212F412C560184E000
:1009C000A80EB11CF6016081718182819381042D92
:1009D000A301D9D36C01F981FC87F0FF02C0F3FFBA
:1009E00006C091FC06C092FE06C000E205C00DE202
:1009F00003C00BE201C000E08C858C7019F001117E
:100A000043C280C297FE10C04C0CFC85F4FF04C0AA
:100A10008A81813309F44A94141474F528E024156A
:100A200078F588E0482E2CC096FC2AC0812F90E0F3
:100A30008C159D059CF03CEFC3163FEFD30674F078
:100A4000892D8068982E0AC0E2E0F0E0EC0FFD1FCF
:100A5000E10FF11D8081803319F411501111F4CF91
:100A600097FE0EC044244394410E812F90E0C81697
:100A7000D9062CF41C1904C04424439401C010E08E
:100A800097FE06C01C141D0434F4C601019605C06F
:100A900085E090E002C081E090E001110196112311
:100AA00031F0212F30E02F5F3F4F820F931F252D14
:100AB00030E08217930714F4581A01C0512C892D85
:100AC000897041F4552031F0B70180E290E049D4BB
:100AD0005A94F8CF002321F0B701802F90E041D441
:100AE00093FC08C0552031F0B70180E390E039D481
:100AF0005A94F8CF97FE4AC04601D7FE02C0812C17
:100B0000912CC60188199909F301E80FF91FFE8796
:100B1000ED87960124193109388B2F87012F10E0BA
:100B20001195019511093FEF8316930621F4B70142
:100B30008EE290E016D4C814D9044CF08F859889C1
:100B40008815990524F4ED85FE85818101C080E337
:100B5000F1E08F1A91082D853E852F5F3F4F3E872C
:100B60002D878016910624F0B70190E0FAD3DBCFF1
:100B7000C814D90441F49A81963320F4953319F4BA
:100B80003C8534FF81E3B70190E048C08A8181331E
:100B900019F09C859F7E9C87B70190E0E2D31111EC
:100BA00005C094FC16C085E690E015C0B7018EE242
:100BB00090E0D7D31E5F82E001E0080FF301E80F59
:100BC000F11D8081B70190E0CCD3802F0113F4CFC9
:100BD000E8CF85E490E0B701C4D3D7FC06C0C114C8
:100BE000D10441F4EC85E4FF05C0D194C194D1084F
:100BF0008DE201C08BE2B70190E0B3D380E32AE03D
:100C0000C216D1042CF08F5FFAE0CF1AD108F7CFCB
:100C1000B70190E0A6D3B701C601C096A2D349C1DF
:100C2000833631F0833779F0833509F052C01FC025
:100C3000560132E0A30EB11CF6018081898301E0E8
:100C400010E0630111C05601F2E0AF0EB11CF601D5
:100C5000C080D18096FE03C0612F70E002C06FEFAC
:100C60007FEFC60173D38C01F92DFF7713C05601B6
:100C700022E0A20EB11CF601C080D18096FE03C016
:100C8000612F70E002C06FEF7FEFC60154D38C017B
:100C9000F92DF0689F2EF3FD18C0852D90E0081700
:100CA000190798F4B70180E290E05BD35A94F5CF2E
:100CB000F60197FC859197FE81916F01B70190E055
:100CC00050D351105A94015011090115110581F7A3
:100CD000F0C0843611F0893659F5560197FE09C0E7
:100CE00024E0A20EB11CF6016081718182819381A2
:100CF0000AC0F2E0AF0EB11CF60160817181072ECF
:100D0000000C880B990BF92DFF769F2E97FF09C0D9
:100D100090958095709561957F4F8F4F9F4FF068AC
:100D20009F2E2AE030E0A30186D3C82EC6183EC00D
:100D3000092D853721F40F7E2AE030E01DC0097FA0
:100D40008F3691F018F4883559F0BCC0803719F00F
:100D5000883711F0B7C0006104FF09C0046007C004
:100D600094FE08C0066006C028E030E005C020E11F
:100D700030E002C020E132E0560107FF09C084E004
:100D8000A80EB11CF601608171818281938108C037
:100D9000F2E0AF0EB11CF6016081718180E090E05D
:100DA000A30149D3C82EC6180F77902E96FE0BC00C
:100DB000092D0E7FC11650F494FE0AC092FC08C0A3
:100DC000092D0E7E05C0DC2C092D03C0DC2C01C0D2
:100DD000D12E04FF0DC0FE01EC0DF11D808180338A
:100DE00011F4097E09C002FF06C0D394D39404C055
:100DF000802F867809F0D39403FD10C000FF06C051
:100E00001C2DD51478F4150D1D190CC0D51450F4F3
:100E1000B70180E290E0A5D2D394F8CFD51410F4B6
:100E20005D1801C0512C04FF0FC0B70180E390E0B2
:100E300098D202FF16C001FD03C088E790E002C00F
:100E400088E590E0B7010CC0802F867851F001FF53
:100E500002C08BE201C080E207FD8DE2B70190E0A5
:100E600080D2C11630F4B70180E390E07AD21150FD
:100E7000F8CFCA94F301EC0DF11D8081B70190E029
:100E800070D2C110F6CF15C0F4E0F51550F584E02E
:100E9000581A93FE1EC0011125C02C8523FF27C0C0
:100EA00004EE10E0392D3071932EF80184918111F8
:100EB00021C0552009F4FCCCB70180E290E051D26A
:100EC0005A94F7CFF7018681978123C08FEF9FEF68
:100ED00020C0B70180E290E044D25A945110F9CF7B
:100EE000DACF512CB701802F90E03BD2D6CF08EE5D
:100EF00010E0D8CF91108052B70190E032D20F5F4E
:100F00001F4FD3CF23E0251510F483E0C1CF512C20
:100F1000C4CF60960FB6F894DEBF0FBECDBFDF9191
:100F2000CF911F910F91FF90EF90DF90CF90BF90E6
:100F3000AF909F908F907F906F905F904F903F9079
:100F40002F9008950F931F93CF93DF9382309105D5
:100F500010F482E090E0E0915102F091520220E022
:100F600030E0A0E0B0E0309719F14081518102817A
:100F7000138148175907C8F08417950769F410972B
:100F800031F012960C93129713961C9327C000937E
:100F900051021093520222C02115310519F0421757
:100FA000530718F49A01BD01EF01DF01F801DBCF0F
:100FB00021153105F9F0281B390B2430310580F457
:100FC0008A819B816115710521F0FB0193838283E6
:100FD00004C09093520280935102FE01329644C0A5
:100FE000FE01E20FF31F819391932250310939835F
:100FF00028833AC020914F0230915002232B41F4B4
:1010000020910202309103023093500220934F024C
:1010100020910002309101022115310541F42DB7D4
:101020003EB74091040250910502241B350BE0911C
:101030004F02F0915002E217F307A0F42E1B3F0B72
:101040002817390778F0AC014E5F5F4F241735073A
:1010500048F04E0F5F1F5093500240934F02819310
:10106000919302C0E0E0F0E0CF01DF91CF911F91BA
:101070000F910895CF93DF93009709F481C0FC018D
:10108000329713821282A0915102B09152021097AE
:1010900081F420813181820F931F20914F02309182
:1010A00050022817390751F5F0935002E0934F0290
:1010B00067C0ED0120E030E0CE17DF0740F44A8141
:1010C0005B819E0141155105F1F0EA01F5CFD38313
:1010D000C28340815181840F951FC817D90759F4E5
:1010E00088819981840F951F0296918380838A81DC
:1010F0009B81938382832115310529F4F093520259
:10110000E09351023DC0E901FB83EA834991599183
:10111000C40FD51FEC17FD0761F480819181840F06
:10112000951F0296E90199838883828193819B832D
:101130008A83E0E0F0E012968D919C9113970097DE
:1011400019F0FD01DC01F7CF8D919C9111979D0164
:101150002E5F3F4F820F931F20914F02309150021C
:101160002817390769F4309729F410925202109227
:10117000510202C013821282B0935002A0934F0218
:10118000DF91CF910895283008F027E03327DA0166
:10119000990F311D87FD916000966105710539F445
:1011A00032602E5F3D9330E32A95E1F708959F3F2B
:1011B00030F080387105610509F03C5F3C5F3D937C
:1011C000913008F08068911DDF93CF931F930F93A8
:1011D000FF92EF92192F987F9695E92F9695969505
:1011E000E90FFF27EA5BFE4F99273327EE24FF2400
:1011F000A701E70105900894079428F4360FE71E2D
:10120000F81E491F511D660F771F881F991F0694EE
:10121000A1F70590079428F4E70EF81E491F561F02
:10122000C11D770F881F991F661F0694A1F70590AF
:10123000079428F4F80E491F561FC71FD11D880FA9
:10124000991F661F771F0694A1F70590079420F455
:10125000490F561FC71FD81F990F661F771F881F7A
:101260000694A9F784911095177041F0D695C7950B
:1012700057954795F794E7941A95C1F7ECEEF0E08F
:1012800068941590159135916591959105907FE23F
:101290007395E118F10A430B560BC90BD009C0F73F
:1012A000E10CF11E431F561FC91FD01D7EF4703381
:1012B00011F48A95E6CFE894015030F0080F0AF453
:1012C0000027021708F4202F2395022F7A3328F0E5
:1012D00079E37D932A95E9F710C07D932A9589F6E5
:1012E000069497956795379517951794E118F10A25
:1012F000430B560BC90BD00998F023957E9173953B
:101300007A3308F070E37C932013B8F77E91706114
:101310007D9330F0839571E37D9370E32A95E1F737
:101320001124EF90FF900F911F91CF91DF9199279A
:1013300087FD90950895FC01059061507040011063
:10134000D8F7809590958E0F9F1F0895FC016150EE
:10135000704001900110D8F7809590958E0F9F1FD7
:1013600008950F931F93CF93DF93FB01238121FDFA
:1013700003C08FEF9FEF2CC022FF16C0468157811C
:10138000248135814217530744F4A081B1819D0126
:101390002F5F3F4F318320838C93268137812F5FCE
:1013A0003F4F3783268314C08B01EC01FB0100847F
:1013B000F185E02D1995892BE1F6D80116968D91CE
:1013C0009C911797019617969C938E931697CE0132
:1013D000DF91CF911F910F9108950F931F93CF939A
:1013E000DF93CDB7DEB72E970FB6F894DEBF0FBEF2
:1013F000CDBF0E891F8986E08C831A8309838FEF06
:101400009FE79E838D83AE01465E5F4F688D798D29
:10141000CE0101960EDAEF81F885E00FF11F108200
:101420002E960FB6F894DEBF0FBECDBFDF91CF91E1
:101430001F910F910895FA01AA27283051F1203108
:1014400081F1E8946F936E7F6E5F7F4F8F4F9F4F58
:10145000AF4FB1E03ED0B4E03CD0670F781F891F9A
:101460009A1FA11D680F791F8A1F911DA11D6A0F68
:10147000711D811D911DA11D20D009F468943F911B
:101480002AE0269F11243019305D3193DEF6CF011A
:101490000895462F4770405D4193B3E00FD0C9F7E0
:1014A000F6CF462F4F70405D4A3318F0495D31FD4D
:1014B0004052419302D0A9F7EACFB4E0A6959795A0
:1014C000879577956795BA95C9F700976105710576
:1014D00008959B01AC010A2E0694579547953795C0
:1014E0002795BA95C9F7620F731F841F951FA01D1A
:0614F0000895F894FFCFFF
:1014F6000000530220000D02010101010152583A79
:101506002056616C756573207265636569766564DE
:101516003A20783D25342E3266206D2F735E3220B8
:10152600793D25342E3266206D2F735E32207A3D4A
:0E15360025342E3266206D2F735E320A0000BF
:00000001FF
